:100000000C942A000C9447000C9447000C94470071
:100010000C9447000C9447000C9447000C94470044
:100020000C9447000C9447000C94D5070C9447009F
:100030000C9447000C9447000C9447000C94470024
:100040000C9447000C9447000C9447000C94470014
:100050000C94470011241FBECFE5D8E0DEBFCDBF12
:1000600012E0A0E6B0E0E8E7F6E202C005900D92EB
:10007000A232B107D9F713E0A2E2B2E001C01D92AB
:10008000AF32B107E1F70E9406040C943A130C94C6
:100090000000DF93CF93CDB7DEB728970FB6F89463
:1000A000DEBF0FBECDBF1E8280912302282F30E01D
:1000B00038872F838F8198858031910509F41FC27D
:1000C0002F813885213131050CF066C08F819885EC
:1000D0008730910509F466C12F81388528303105B4
:1000E00054F58F8198858330910509F4FFC02F81E5
:1000F00038852430310594F48F81988581309105BD
:1001000009F4C9C02F813885223031050CF0D7C0E1
:100110008F819885009709F4A0C06FC32F8138851F
:100120002530310509F413C18F81988586309105FA
:100130000CF021C1F5C02F8138852B30310509F431
:1001400080C18F8198858C3091056CF42F81388522
:100150002930310509F44AC18F8198858A3091058B
:100160000CF058C12EC12F8138852D30310509F48E
:100170008CC18F8198858D3091050CF471C12F81D0
:1001800038852E30310509F494C18F8198858F30E0
:10019000910509F4A5C131C32F8138852831310576
:1001A00009F44BC28F819885893191052CF52F81F7
:1001B00038852431310509F4F1C18F819885853165
:1001C00091056CF42F8138852231310509F4C0C1C5
:1001D0008F819885833191050CF0D1C1A5C12F8104
:1001E00038852631310509F402C28F81988587311F
:1001F00091050CF013C2E7C12F8138852C313105F0
:1002000009F47EC28F8198858D3191056CF42F8120
:1002100038852A31310509F448C28F8198858B31A0
:1002200091050CF056C21EC22F8138852E31310542
:1002300009F4A3C28F8198858E3191050CF488C290
:100240002F8138852F31310509F4AAC28F81988515
:100250008032910509F4BEC2D0C20E94DC0F8093A7
:100260001C0280911C02882309F0C7C21D820AC0AB
:100270008D81882F90E0FC01E35CFD4F10828D8121
:100280008F5F8D838D81853098F3809123028F5FFE
:1002900080932302B2C280E690E024E232E0B9010A
:1002A0000E94D01180912402813009F0A6C21092E0
:1002B0002402809123028F5F809323029EC224E850
:1002C00030E0ECE2F2E081E060E0A9019F010E94F1
:1002D000711280912C02813009F08FC210922C0291
:1002E000809123028F5F8093230287C21C821B822E
:1002F00010C08B819C8123E0873E920729F4809176
:1003000023028F5F809323028B819C8101969C83C3
:100310008B838B819C8133E0883E930754F36DC2BD
:1003200081E00E945C10809134028F5F80933402E0
:1003300080913402883009F060C2109234028091BA
:1003400023028F5F809323021092220256C280EA1A
:1003500090E025E232E0B9010E94D011809125029F
:10036000813009F04AC210922502809123028F5FEA
:100370008093230242C224EC30E0EDE2F2E081E01F
:1003800060E0A9019F010E94711280912D028130CD
:1003900009F033C210922D02809123028F5F809367
:1003A00023022BC20E944C0F80933D0280913D029C
:1003B000882309F422C2809123028F5F8093230255
:1003C0001CC281E00E945C10809135028F5F809397
:1003D000350280913502883009F00FC21092350243
:1003E000809123028F5F8093230207C282EE90E008
:1003F00026E232E0B9010E94D011809126028130BC
:1004000009F0FBC110922602809123028F5F809336
:100410002302F3C124EC30E0EEE2F2E081E060E0A0
:10042000A9019F010E94711280912E02813009F072
:10043000E4C110922E02809123028F5F80932302E9
:10044000DCC10E944C0F80933E0280913E028823C3
:1004500009F4D3C1809123028F5F80932302CDC121
:1004600081E00E945C10809136028F5F809336029B
:1004700080913602883009F0C0C110923602809116
:1004800023028F5F80932302B8C18AE091E027E2C4
:1004900032E0B9010E94D01180912702813009F029
:1004A000ACC110922702809123028F5F80932302B8
:1004B000A4C123E331E0EFE2F2E081E060E0A901D2
:1004C0009F010E94711280912F02813009F095C125
:1004D00010922F02809123028F5F809323028DC19F
:1004E0000E944C0F80933F0280913F02882309F4C1
:1004F00084C1809123028F5F809323027EC181E0BB
:100500000E945C10809137028F5F80933702809148
:100510003702883009F071C11092370280912302AE
:100520008F5F8093230269C18FE491E028E232E07B
:10053000B9010E94D01180912802813009F05DC17B
:1005400010922802809123028F5F8093230255C16D
:1005500024E731E0E0E3F2E081E060E0A9019F01FF
:100560000E94711280913002813009F046C11092D0
:100570003002809123028F5F809323023EC10E944C
:100580004C0F8093400280914002882309F435C1CA
:10059000809123028F5F809323022FC181E00E940C
:1005A0005C10809138028F5F80933802809138020E
:1005B000883009F022C110923802809123028F5FA7
:1005C000809323021AC182E991E029E232E0B90165
:1005D0000E94D01180912902813009F00EC1109241
:1005E0002902809123028F5F8093230206C123E3B7
:1005F00031E0E1E3F2E081E060E0A9019F010E94C7
:10060000711280913102813009F0F7C010923102ED
:10061000809123028F5F80932302EFC00E944C0FD2
:100620008093410280914102882309F4E6C08091C1
:1006300023028F5F80932302E0C081E00E945C1060
:10064000809139028F5F809339028091390288301E
:1006500009F0D3C010923902809123028F5F8093FA
:100660002302CBC01E8218C08E81882F90E0FC012F
:10067000E35CFD4F20818E81882F90E0FC01E35EDA
:10068000FD4F8081281729F4809122028F5F80938B
:1006900022028E818F5F8E838E81853028F3809138
:1006A00023028F5F80932302A8C08BEB91E02AE2A4
:1006B00032E0B9010E94D01180912A02813009F004
:1006C0009CC010922A02809123028F5F80932302A4
:1006D00094C02AED31E0E2E3F2E081E060E0A901BC
:1006E0009F010E94711280913202813009F085C011
:1006F00010923202809123028F5F809323027DC08B
:10070000809122022BE232E0B9010E94AC1280916A
:100710002B02813009F071C01A82198212C08981BE
:100720009A8127E28F30920739F4809123028F5FFC
:100730008093230210922B0289819A8101969A83D9
:10074000898389819A8137E28031930744F355C0C8
:1007500081E00E945C1080913A028F5F80933A02A0
:1007600080913A02883009F048C0809123028F5F5F
:100770008093230210923A0240C085EF91E023E378
:1007800032E0B9010E94D011809133028130A9F585
:10079000809123028F5F80932302109233022DC039
:1007A0000E944C0F80933C0280913C02813021F4E6
:1007B00084E08093230221C080913C02823031F496
:1007C000809123028F5F8093230217C08FE1809373
:1007D000230213C081E00E945C1080913B028F5F76
:1007E00080933B0280913B02883039F48091230250
:1007F0008F5F8093230210923B0228960FB6F894E5
:10080000DEBF0FBECDBFCF91DF9108950F93DF9371
:10081000CF93CDB7DEB785E00E941B0429E430E01A
:1008200061E070E080E090E041E000E00E944A0476
:100830000E949506FDCFDF93CF9300D0CDB7DEB7F2
:100840008A838A818823F1F08A818823C1F01092FB
:100850004A0285E080934B0281E080934D02109222
:100860004C028A81809342028AE492E00E9443080B
:100870001982809143028F5F8093430205C081E01B
:10088000898302C081E0898389810F900F90CF9185
:10089000DF9108950F93DF93CF93CDB7DEB72A97FB
:1008A0000FB6F894DEBF0FBECDBF6B837C838D8304
:1008B0009E834F83398728870A871A8219828091FD
:1008C0004302813009F041C1809144028F3008F029
:1008D0003AC18A85282F30E0C901880F991F820FFD
:1008E000931F880F991F880F991F820F931FFC0178
:1008F000E75AFD4F8081882309F022C18F81823021
:1009000009F098C08A85282F30E0C901880F991F07
:10091000820F931F880F991F880F991F820F931FB3
:10092000FC01E85AFD4F8A8580838A85282F30E0B4
:10093000C901880F991F820F931F880F991F880F75
:10094000991F820F931FFC01E25BFD4F88859985FB
:10095000918380838A85282F30E0C901880F991FF1
:10096000820F931F880F991F880F991F820F931F63
:10097000FC01E65AFD4F82E080838A85282F30E013
:10098000C901880F991F820F931F880F991F880F25
:10099000991F820F931FFC01E75AFD4F81E080836E
:1009A0008A85282F30E0C901880F991F820F931F75
:1009B000880F991F880F991F820F931FFC01E05B1E
:1009C000FD4F8B819C81AD81BE8180839183A28309
:1009D000B3838A85282F30E0C901880F991F820FC1
:1009E000931F880F991F880F991F820F931FFC0177
:1009F000EC5AFD4F8B819C81AD81BE8180839183B8
:100A0000A283B38380914402882369F480914202D7
:100A100089838981282F30E040E050E080E0BA01EE
:100A2000A9010E941D09809144028F5F80934402B6
:100A30001A828BC08F81813009F07FC08A85282F70
:100A400030E0C901880F991F820F931F880F991FEB
:100A5000880F991F820F931FFC01E85AFD4F8A856A
:100A600080838A85282F30E0C901880F991F820F63
:100A7000931F880F991F880F991F820F931FFC01E6
:100A8000E25BFD4F88859985918380838A85282F35
:100A900030E0C901880F991F820F931F880F991F9B
:100AA000880F991F820F931FFC01E65AFD4F81E0CA
:100AB00080838A85282F30E0C901880F991F820F13
:100AC000931F880F991F880F991F820F931FFC0196
:100AD000E75AFD4F81E080838A85282F30E0C901E5
:100AE000880F991F820F931F880F991F880F991FD6
:100AF000820F931FFC01E05BFD4F8B819C81AD81D8
:100B0000BE8180839183A283B38380914402882332
:100B100069F48091420289838981282F30E040E086
:100B200050E080E0BA01A9010E941D0980914402B1
:100B30008F5F809344021A8208C081E08A8305C0D7
:100B400082E08A8302C083E08A838A812A960FB674
:100B5000F894DEBF0FBECDBFCF91DF910F91089506
:100B6000DF93CF9300D000D0CDB7DEB79C838B83CB
:100B70001A8219828B819C81009709F4CCC01A8259
:100B8000C5C08A81282F30E0C901880F991F820FC4
:100B9000931F880F991F880F991F820F931FFC01C5
:100BA000E25BFD4F208131818B819C8128173907C1
:100BB00009F0A7C08A81282F30E0C901880F991F4A
:100BC000820F931F880F991F880F991F820F931F01
:100BD000FC01E75AFD4F8081833009F094C08A817F
:100BE000282F30E0C901880F991F820F931F880FAB
:100BF000991F880F991F820F931FFC01E65AFD4F22
:100C00008081813009F07AC08A81282F30E0C901C3
:100C1000880F991F820F931F880F991F880F991FA4
:100C2000820F931FFC01E25BFD4F118210828A81CB
:100C3000282F30E0C901880F991F820F931F880F5A
:100C4000991F880F991F820F931FFC01E65AFD4FD1
:100C500010828A81282F30E0C901880F991F820FE6
:100C6000931F880F991F880F991F820F931FFC01F4
:100C7000E75AFD4F10828A81282F30E0C901880F82
:100C8000991F820F931F880F991F880F991F820F3A
:100C9000931FFC01E05BFD4F1082118212821382D0
:100CA0008A81282F30E0C901880F991F820F931F76
:100CB000880F991F880F991F820F931FFC01EC5A10
:100CC000FD4F10821182128213828A81282F30E018
:100CD000C901880F991F820F931F880F991F880FD2
:100CE000991F820F931FFC01E85AFD4F10828091DB
:100CF0004402815080934402198205C082E08983B6
:100D000002C083E089838A818F5F8A838A818F30E2
:100D100008F437CF02C084E0898389810F900F9057
:100D20000F900F90CF91DF9108950F931F93DF9352
:100D3000CF930F92CDB7DEB780914502882F90E018
:100D4000009709F02CC1198223C18981282F30E036
:100D5000C901880F991F820F931F880F991F880F51
:100D6000991F820F931FFC01E75AFD4F8081882352
:100D700009F40BC18981282F30E0C901880F991F20
:100D8000820F931F880F991F880F991F820F931F3F
:100D9000FC01EC5AFD4F20813181428153818091C9
:100DA000460290914702A0914802B091490228174B
:100DB00039074A075B0709F0E8C08981282F30E02E
:100DC000C901880F991F820F931F880F991F880FE1
:100DD000991F820F931FFC01E65AFD4F80818130DD
:100DE00009F06EC08981282F30E0C901880F991F52
:100DF000820F931F880F991F880F991F820F931FCF
:100E0000FC01E25BFD4F0190F081E02D09958981A5
:100E1000282F30E0C901880F991F820F931F880F78
:100E2000991F880F991F820F931FFC01E75AFD4FEE
:100E300083E080838981082F10E08981282F30E0AA
:100E4000C901880F991F820F931F880F991F880F60
:100E5000991F820F931FFC01EC5AFD4F4081518175
:100E6000628173818981282F30E0C901880F991F21
:100E7000820F931F880F991F880F991F820F931F4E
:100E8000FC01E05BFD4F80819181A281B3819A01D9
:100E9000AB01280F391F4A1F5B1FC801880F991F1C
:100EA000800F911F880F991F880F991F800F911F26
:100EB000FC01EC5AFD4F208331834283538365C08C
:100EC0008981282F30E0C901880F991F820F931F55
:100ED000880F991F880F991F820F931FFC01E65AF4
:100EE000FD4F8081823009F050C08981282F30E089
:100EF000C901880F991F820F931F880F991F880FB0
:100F0000991F820F931FFC01E25BFD4F0190F0815E
:100F1000E02D09958981282F30E0C901880F991F9C
:100F2000820F931F880F991F880F991F820F931F9D
:100F3000FC01E65AFD4F10828981282F30E0C9015B
:100F4000880F991F820F931F880F991F880F991F71
:100F5000820F931FFC01E85AFD4F10828981282FD0
:100F600030E0C901880F991F820F931F880F991FC6
:100F7000880F991F820F931FFC01E75AFD4F1082C3
:100F80008091440281508093440289818F5F8983DC
:100F900089818F3008F4D9CE81E0809345020F908B
:100FA000CF91DF911F910F9108951F920F920FB66D
:100FB0000F9211242F933F938F939F93AF93BF93DF
:100FC000EF93FF93DF93CF9300D0CDB7DEB780913F
:100FD000460290914702A0914802B09149020196C1
:100FE000A11DB11D8093460290934702A093480231
:100FF000B0934902109245028091460290914702B7
:10100000A0914802B09149028F3F9105A105B10519
:1010100049F510924602109247021092480210922F
:1010200049021A82198219C029813A81C901880F9F
:10103000991F820F931F880F991F880F991F820F86
:10104000931FFC01EC5AFD4F108211821282138211
:1010500089819A8101969A83898389819A818F30C7
:10106000910514F30F900F90CF91DF91FF91EF91C5
:10107000BF91AF919F918F913F912F910F900FBE94
:101080000F901F901895DF93CF93CDB7DEB72997B8
:101090000FB6F894DEBF0FBECDBF9B838A83198243
:1010A000EA81FB818081282F30E039872887888575
:1010B0009985009739F0288539852130310509F463
:1010C00063C0AFC0EA81FB818281882F90E00096E7
:1010D0008230910548F5A3E5B0E0E3E5F0E08081DA
:1010E00080688C93A3E5B0E0E3E5F0E08081886060
:1010F0008C93A3E5B0E0E3E5F0E080818F7B8C93F7
:10110000A3E5B0E0E3E5F0E080818F7E8C93A3E57A
:10111000B0E0E3E5F0E080818F7D8C93EA81FB8194
:1011200081818093110302C081E08983EA81FB8180
:101130008381282F30E03F832E838E819F8100970B
:1011400031F02E813F812130310571F01AC0EA81E2
:10115000FB81838180931403A9E5B0E0E9E5F0E029
:10116000808182608C935FC0A9E5B0E0E9E5F0E0A2
:10117000808182608C93EA81FB8183818093140358
:1011800052C081E089834FC0EA81FB818281882F30
:1011900090E0009682309105A0F4AFE4B0E0EFE477
:1011A000F0E080818F7B8C93AFE4B0E0EFE4F0E07F
:1011B00080818F778C93EA81FB81818180931203F8
:1011C00002C081E08983EA81FB818381282F30E09E
:1011D0003D832C838C819D81009731F02C813D8152
:1011E0002130310571F01AC0EA81FB81838180933F
:1011F0001503A9E5B0E0E9E5F0E0808180618C931A
:1012000012C0A9E5B0E0E9E5F0E0808180618C934F
:10121000EA81FB8183818093150305C081E0898386
:1012200002C081E08983898129960FB6F894DEBFD8
:101230000FBECDBFCF91DF910895DF93CF93CDB790
:10124000DEB728970FB6F894DEBF0FBECDBF8A83F6
:101250004B835C836D837E838A81282F30E03887BF
:101260002F838F819885009739F02F813885213021
:10127000310509F454C0AAC0A3E5B0E0E3E5F0E00D
:101280008081887F8C93A3E5B0E0E3E5F0E0908176
:1012900080911103892B8C938B819C81AD81BE81C0
:1012A0008F3F9105A105B10509F088F48B819C81E0
:1012B000AD81BE810097A105B10549F0E2E5F0E0FE
:1012C0001082ECE5F0E08B818083198202C081E01E
:1012D000898380911403882391F4E8E5F0E080810C
:1012E000882F90E0827090700097B9F3A8E5B0E085
:1012F000E8E5F0E0808182608C93198267C080917C
:101300001403813049F4AFE5B0E0EFE5F0E080810F
:1013100080688C9319825AC081E0898357C0AEE4FB
:10132000B0E0EEE4F0E08081887F8C93AEE4B0E042
:10133000EEE4F0E0908180911203892B8C938B81F5
:101340009C81AD81BE81893E3DEF930730E0A307CC
:1013500030E0B307A0F48B819C81AD81BE81009702
:10136000A105B10561F0ECE4F0E011821082EAE43D
:10137000F0E08B819C8191838083198202C081E09F
:10138000898380911503882391F4E8E5F0E080815A
:10139000882F90E0807190700097B9F3A8E5B0E0D5
:1013A000E8E5F0E0808180618C9319820FC0809124
:1013B0001503813049F4AFE5B0E0EFE5F0E080815E
:1013C00080688C93198202C081E089838981289684
:1013D0000FB6F894DEBF0FBECDBFCF91DF91089559
:1013E000DF93CF9300D000D0CDB7DEB7898389815A
:1013F000282F30E03C832B838B819C81009731F038
:101400002B813C812130310581F01EC0A3E5B0E085
:10141000E3E5F0E08081887F8C93A3E5B0E0E3E52D
:10142000F0E080818C931A8211C0AEE4B0E0EEE46B
:10143000F0E08081887F8C93AEE4B0E0EEE4F0E0F1
:1014400080818C931A8202C031E03A838A810F90A6
:101450000F900F900F90CF91DF910895DF93CF936E
:1014600000D000D0CDB7DEB789838981282F30E046
:101470003C832B838B819C81009731F02B813C81B5
:101480002130310531F00BC0E2E5F0E010821A8224
:1014900008C0ECE4F0E0118210821A8202C031E050
:1014A0003A838A810F900F900F900F90CF91DF9128
:1014B0000895DF93CF9300D000D000D0CDB7DEB732
:1014C00089837B836A838981282F30E03E832D8343
:1014D0008D819E81009731F02D813E812130310533
:1014E00059F015C0E8E5F0E0808186958170EA81C9
:1014F000FB8180831C820DC0E8E5F0E0808182954D
:101500008F708170EA81FB8180831C8202C031E090
:101510003C838C8126960FB6F894DEBF0FBECDBFFC
:10152000CF91DF910895DF93CF9300D00F92CDB785
:10153000DEB789836A838981883078F58A81813032
:1015400099F4AAE3B0E0EAE3F0E08081482F8981D2
:10155000282F30E081E090E0022E02C0880F991F12
:101560000A94E2F7842B8C938A818823A1F4AAE35E
:10157000B0E0EAE3F0E08081482F8981282F30E055
:1015800081E090E0022E02C0880F991F0A94E2F7D2
:10159000809584238C931B82B3C089818830C0F1ED
:1015A00089818031A8F58A818130B1F4A7E3B0E068
:1015B000E7E3F0E08081482F8981882F90E09C014B
:1015C0002770307081E090E0022E02C0880F991FD2
:1015D0000A94E2F7842B8C938A818823B9F4A7E3D9
:1015E000B0E0E7E3F0E08081482F8981882F90E028
:1015F0009C012770307081E090E0022E02C0880FBD
:10160000991F0A94E2F7809584238C931B8278C0FB
:1016100089818031C0F189818831A8F58A81813042
:10162000B1F4A4E3B0E0E4E3F0E08081482F8981E5
:10163000882F90E09C012770307081E090E0022EAE
:1016400002C0880F991F0A94E2F7842B8C938A8139
:101650008823B9F4A4E3B0E0E4E3F0E08081482F0C
:101660008981882F90E09C012770307081E090E0A4
:10167000022E02C0880F991F0A94E2F780958423F6
:101680008C931B823DC089818831C0F18981803271
:10169000A8F58A818130B1F4A1E3B0E0E1E3F0E0A4
:1016A0008081482F8981882F90E09C0127703070BD
:1016B00081E090E0022E02C0880F991F0A94E2F7A1
:1016C000842B8C938A818823B9F4A1E3B0E0E1E311
:1016D000F0E08081482F8981882F90E09C0127705D
:1016E000307081E090E0022E02C0880F991F0A94AA
:1016F000E2F7809584238C931B8202C081E08B8368
:101700008B810F900F900F90CF91DF910895DF9311
:10171000CF9300D00F92CDB7DEB789836A838981DA
:10172000882381F48A81813029F4EAE3F0E08FEFA5
:10173000808306C08A81882319F4EAE3F0E01082EE
:101740001B823BC08981813081F48A81813029F4F8
:10175000E7E3F0E08FEF808306C08A81882319F4E5
:10176000E7E3F0E010821B8228C08981823081F497
:101770008A81813029F4E4E3F0E08FEF808306C0B2
:101780008A81882319F4E4E3F0E010821B8215C0FB
:101790008981833081F48A81813029F4E1E3F0E0AA
:1017A0008FEF808306C08A81882319F4E1E3F0E09B
:1017B00010821B8202C081E08B838B810F900F907F
:1017C0000F90CF91DF910895DF93CF9300D00F92C8
:1017D000CDB7DEB789836A838981883078F58A81BD
:1017E000813099F4ABE3B0E0EBE3F0E08081482F87
:1017F0008981282F30E081E090E0022E02C0880F1E
:10180000991F0A94E2F7842B8C938A818823A1F490
:10181000ABE3B0E0EBE3F0E08081482F8981282F33
:1018200030E081E090E0022E02C0880F991F0A94F8
:10183000E2F7809584238C931B82B3C08981883022
:10184000C0F189818031A8F58A818130B1F4A8E3A3
:10185000B0E0E8E3F0E08081482F8981882F90E0B4
:101860009C012770307081E090E0022E02C0880F4A
:10187000991F0A94E2F7842B8C938A818823B9F408
:10188000A8E3B0E0E8E3F0E08081482F8981882F69
:1018900090E09C012770307081E090E0022E02C041
:1018A000880F991F0A94E2F7809584238C931B82FA
:1018B00078C089818031C0F189818831A8F58A8119
:1018C0008130B1F4A5E3B0E0E5E3F0E08081482F9A
:1018D0008981882F90E09C012770307081E090E032
:1018E000022E02C0880F991F0A94E2F7842B8C9372
:1018F0008A818823B9F4A5E3B0E0E5E3F0E08081D4
:10190000482F8981882F90E09C012770307081E0FA
:1019100090E0022E02C0880F991F0A94E2F780958A
:1019200084238C931B823DC089818831C0F18981D9
:101930008032A8F58A818130B1F4A2E3B0E0E2E31D
:10194000F0E08081482F8981882F90E09C012770EA
:10195000307081E090E0022E02C0880F991F0A9437
:10196000E2F7842B8C938A818823B9F4A2E3B0E058
:10197000E2E3F0E08081482F8981882F90E09C018C
:101980002770307081E090E0022E02C0880F991F0E
:101990000A94E2F7809584238C931B8202C081E035
:1019A0008B838B810F900F900F90CF91DF910895D3
:1019B000DF93CF9300D000D0CDB7DEB789837B8390
:1019C0006A838981883078F5E9E3F0E08081282F07
:1019D00030E08981882F90E0A90102C05595479594
:1019E0008A95E2F7CA0181709070882321F0EA811C
:1019F000FB8181E08083E9E3F0E08081282F30E003
:101A00008981882F90E0A90102C0559547958A9554
:101A1000E2F7CA0181709070009719F4EA81FB81A6
:101A200010821C82ADC089818830B0F189818031FB
:101A300098F5E6E3F0E08081282F30E08981882F57
:101A400090E087709070A90102C0559547958A95DE
:101A5000E2F7CA0181709070882321F0EA81FB814E
:101A600081E08083E6E3F0E08081282F30E0898107
:101A7000882F90E087709070A90102C05595479516
:101A80008A95E2F7CA0181709070009719F4EA8193
:101A9000FB8110821C8274C089818031B0F1898100
:101AA000883198F5E3E3F0E08081282F30E08981E8
:101AB000882F90E087709070A90102C055954795D6
:101AC0008A95E2F7CA0181709070882321F0EA813B
:101AD000FB8181E08083E3E3F0E08081282F30E028
:101AE0008981882F90E087709070A90102C0559578
:101AF00047958A95E2F7CA0181709070009719F4B2
:101B0000EA81FB8110821C823BC089818831B0F15F
:101B10008981803298F5E0E3F0E08081282F30E081
:101B20008981882F90E087709070A90102C0559537
:101B300047958A95E2F7CA0181709070882321F059
:101B4000EA81FB8181E08083E0E3F0E08081282F5F
:101B500030E08981882F90E087709070A90102C0E1
:101B6000559547958A95E2F7CA0181709070009764
:101B700019F4EA81FB8110821C8202C051E05C836F
:101B80008C810F900F900F900F90CF91DF9108955F
:101B9000DF93CF9300D00F92CDB7DEB789836A83EE
:101BA0008981882331F4EBE3F0E08A8180831B8212
:101BB0001DC08981813031F4E8E3F0E08A818083BF
:101BC0001B8214C08981823031F4E5E3F0E08A8120
:101BD00080831B820BC08981833031F4E2E3F0E023
:101BE0008A8180831B8202C081E08B838B810F906E
:101BF0000F900F90CF91DF910895DF93CF9300D096
:101C000000D0CDB7DEB789837B836A83898188233F
:101C100041F4E9E3F0E08081EA81FB8180831C826A
:101C200023C08981813041F4E6E3F0E08081EA81DC
:101C3000FB8180831C8218C08981823041F4E3E3F8
:101C4000F0E08081EA81FB8180831C820DC0898164
:101C5000833041F4E0E3F0E08081EA81FB8180831E
:101C60001C8202C081E08C838C810F900F900F90BA
:101C70000F90CF91DF910895DF93CF9300D0CDB730
:101C8000DEB7898389818830A8F4ABE3B0E0EBE369
:101C9000F0E08081482F8981282F30E081E090E0BA
:101CA000022E02C0880F991F0A94E2F7842B8C93AE
:101CB0001A8262C089818830E8F089818031D0F44D
:101CC000A8E3B0E0E8E3F0E08081482F8981882F25
:101CD00090E0877090709C012150304081E090E04E
:101CE000022E02C0880F991F0A94E2F7842B8C936E
:101CF0001A8242C089818031E8F089818831D0F42C
:101D0000A5E3B0E0E5E3F0E08081482F8981882FEA
:101D100090E0877090709C012150304081E090E00D
:101D2000022E02C0880F991F0A94E2F7842B8C932D
:101D30001A8222C089818831E8F089818032D0F40A
:101D4000A2E3B0E0E2E3F0E08081482F8981882FB0
:101D500090E0877090709C012150304081E090E0CD
:101D6000022E02C0880F991F0A94E2F7842B8C93ED
:101D70001A8202C081E08A838A810F900F90CF91EE
:101D8000DF910895DF93CF9300D0CDB7DEB789837D
:101D900089818730B0F4ABE3B0E0EBE3F0E0808121
:101DA000482F8981282F30E081E090E0022E02C088
:101DB000880F991F0A94E2F7809584238C931A82E6
:101DC00065C089818830F0F089818031D8F4A8E33A
:101DD000B0E0E8E3F0E08081482F8981882F90E02F
:101DE000877090709C012150304081E090E0022E7D
:101DF00002C0880F991F0A94E2F7809584238C9380
:101E00001A8244C089818031F0F089818831D8F408
:101E1000A5E3B0E0E5E3F0E08081482F8981882FD9
:101E200090E0877090709C012150304081E090E0FC
:101E3000022E02C0880F991F0A94E2F7809584232E
:101E40008C931A8223C089818831F0F08981803295
:101E5000D8F4A2E3B0E0E2E3F0E08081482F89818A
:101E6000882F90E0877090709C012150304081E075
:101E700090E0022E02C0880F991F0A94E2F7809525
:101E800084238C931A8202C081E08A838A810F9016
:101E90000F90CF91DF910895DF93CF9300D00F92F1
:101EA000CDB7DEB719821B8249C0E4E3F0E08B8135
:101EB000282F30E080E190E002C0880F991F2A951A
:101EC000E2F78083E5E3F0E08B81282F30E080E1CA
:101ED00090E0022E02C0880F991F0A94E2F78095C5
:101EE00080831A8225C0E3E3F0E08081282F30E070
:101EF0008A81882F90E0A90102C0559547958A955F
:101F0000E2F7CA0181709070009779F48A81282FD6
:101F100030E0C901880F991F820F931F982F8B8182
:101F2000890F8F5F0E94A90F89838A818F5F8A83BF
:101F30008A818430C0F28B818F5F8B838B81833069
:101F400008F4B3CF89810F900F900F90CF91DF915C
:101F50000895DF93CF9300D000D0CDB7DEB789834B
:101F60008981282F30E03C832B838B819C818A30B0
:101F7000910581F02B813C812A3031059CF08B81C9
:101F80009C818B30910549F02B813C812C303105AF
:101F900031F008C03AE23A8307C01A8205C083E2F2
:101FA0008A8302C099819A838A810F900F900F9043
:101FB0000F90CF91DF910895DF93CF9300D00F92D0
:101FC000CDB7DEB7198280911703282F30E03B830D
:101FD0002A838A819B8181309105C1F12A813B81CD
:101FE000223031052CF48A819B81009769F05BC017
:101FF0002A813B8122303105E9F18A819B8183303E
:10200000910509F44BC04FC0AAE3B0E0EAE3F0E069
:1020100080818E608C93AAE3B0E0EAE3F0E08081F7
:10202000806F8C9382E00E945C10809118038F5F18
:102030008093180380911803883029F410921803B4
:1020400081E08093170381E089832FC08CE00E9498
:102050005C10809118038F5F8093180380911803A0
:10206000883029F41092180382E08093170382E0ED
:1020700089831BC088E20E945C10809118038F5FE7
:102080008093180380911803883029F41092180364
:1020900083E08093170383E0898307C0198283E07C
:1020A0008093170302C084E0898389810F900F9089
:1020B0000F90CF91DF910895DF93CF9300D000D0A0
:1020C000CDB7DEB78A8380911903282F30E03C8397
:1020D0002B838B819C818330910509F459C02B811E
:1020E0003C81243031057CF48B819C8181309105C9
:1020F000A9F12B813C8122303105DCF58B819C815B
:102100000097D1F081C02B813C812530310509F445
:1021100055C08B819C81853091050CF444C02B8186
:102120003C812630310509F45FC08B819C8187306A
:10213000910509F464C068C0ABE3B0E0EBE3F0E004
:1021400080818D7F8C93ABE3B0E0EBE3F0E08081A6
:102150008B7F8C9381E08093190358C0ABE3B0E090
:10216000EBE3F0E0808188608C9382E08093190338
:102170004DC0ABE3B0E0EBE3F0E08081982F9F70BF
:102180008A81807F892B8C9383E0809319033EC0E2
:10219000ABE3B0E0EBE3F0E08081877F8C9384E0F9
:1021A0008093190333C0ABE3B0E0EBE3F0E0808150
:1021B00088608C9385E08093190328C0ABE3B0E07E
:1021C000EBE3F0E08081282F2F708A81882F90E048
:1021D00082959295907F9827807F9827822B8C9369
:1021E00086E08093190312C0ABE3B0E0EBE3F0E0CC
:1021F0008081877F8C9387E08093190307C01092BA
:10220000190384E6898302C084E0898389810F9061
:102210000F900F900F90CF91DF910895DF93CF93A0
:1022200000D000D0CDB7DEB78A8319828091170322
:10223000833009F0ADC080911A03282F30E03C8331
:102240002B838B819C818330910509F45EC02B81A7
:102250003C812430310584F48B819C81813091054F
:10226000C1F12B813C81223031050CF03FC08B81C4
:102270009C810097D1F08AC02B813C8125303105AB
:1022800009F45DC08B819C81853091050CF44AC0B6
:102290002B813C812630310509F468C08B819C81FB
:1022A0008730910509F46EC071C0ABE3B0E0EBE399
:1022B000F0E0808182608C93ABE3B0E0EBE3F0E090
:1022C00080818B7F8C9381E080931A0384E08983E3
:1022D0005FC0ABE3B0E0EBE3F0E0808188608C931B
:1022E00082E080931A0382E0898352C0ABE3B0E0BE
:1022F000EBE3F0E08081982F9F708A81807F892BAB
:102300008C9383E080931A0343C0ABE3B0E0EBE32C
:10231000F0E08081877F8C9384E080931A0381E0D2
:10232000898336C0ABE3B0E0EBE3F0E08081886006
:102330008C9385E080931A0382E0898329C0ABE304
:10234000B0E0EBE3F0E08081282F2F708A81882FA6
:1023500090E082959295907F9827807F9827822B96
:102360008C93198286E080931A0312C0ABE3B0E02D
:10237000EBE3F0E08081877F8C93198287E0809384
:102380001A0306C010921A03198202C083E08983DF
:1023900089810F900F900F900F90CF91DF9108954A
:1023A000DF93CF9300D000D00F92CDB7DEB79B83E1
:1023B0008A837D836C831982809117038330E1F5D2
:1023C000EC81FD8180818823B9F580911B03282F42
:1023D00030E08A819B81FC01E20FF31F808188231A
:1023E00011F180911B03282F30E08A819B81FC0131
:1023F000E20FF31F80810E940E1180911C038F5FFA
:1024000080931C0380911C03883051F480911B033E
:102410008F5F80931B0310921C0381E089830CC0A3
:1024200082E0898309C0EC81FD8181E08083109284
:102430001B0310921C03198289810F900F900F903B
:102440000F900F90CF91DF910895DF93CF93CDB789
:10245000DEB781E00E945C10CF91DF910895DF9399
:10246000CF9300D000D00F92CDB7DEB78A836B83B5
:102470008A81282F30E03D832C838C819D8181309F
:102480009105C1F02C813D81223031052CF48C81E5
:102490009D81009761F019C02C813D81223031056A
:1024A00069F08C819D818330910561F00EC08B8134
:1024B00089830BC08B81805C898307C08B81805F9F
:1024C000898303C08B81805B8983898180680E94B6
:1024D0005C100F900F900F900F900F90CF91DF91A5
:1024E0000895DF93CF9300D000D000D0CDB7DEB7F2
:1024F00089836A835C834B833E832D83ED81FE81D8
:102500008081882301F580911D038F5F80931D03D7
:1025100080911D03893028F489816A810E942F12DD
:1025200012C080911D03883070F08B819C812D81B9
:102530003E81B9010E94D011ED81FE818081813000
:1025400011F410921D0326960FB6F894DEBF0FBE4D
:10255000CDBFCF91DF910895DF93CF9300D000D00E
:102560000F92CDB7DEB78B837D836C8380911E0382
:10257000882351F48B81882F90E02FE133E0B9015B
:102580004AE050E00E94F51280911E03893028F540
:102590008FE193E02C813D81B9010E94D01180919F
:1025A0001E038F5F80931E0380911E038930A9F460
:1025B00010921E031A8219820BC089819A81FC0134
:1025C000E15EFC4F108289819A8101969A8389830A
:1025D00089819A818031910584F30F900F900F903B
:1025E0000F900F90CF91DF910895FB019F01E89428
:1025F0004230C4F04532B4F44A3029F497FB1EF45B
:10260000909581959F4F642F77270E942613805DB8
:102610008A330CF0895D8193CB010097A1F716F402
:102620005DE251931082C9010C941613DC01FC0188
:10263000672F71917723E1F7329704C07C916D93F6
:1026400070836291AE17BF07C8F30895AA1BBB1B26
:1026500051E107C0AA1FBB1FA617B70710F0A61BA2
:10266000B70B881F991F5A95A9F780959095BC01C3
:08267000CD010895F894FFCF9D
:1026780020202020202020574C45434F4D452054F2
:102688004F2054484520434F56494431392047414B
:102698004D45200020202020202020202020202000
:1026A8002020204C4554275320504C4159212000CC
:1026B800202020202020434F5649443139204953B7
:1026C800204120474C4F42414C2050616E64656D5B
:1026D80069633F0020202020202020202020202067
:1026E800312D59455320322D4E4F20332D534B4910
:1026F800500020205761736820796F7572206861D7
:102708006E6473206672657175656E746C79206687
:102718006F722032307365633F004E6F206E6565BF
:102728006420746F207374617920686F6D652077F9
:1027380068656E20796F75206861766520666576B4
:1027480065720073796D70746F6D733F20312D5908
:10275800455320322D4E4F20332D534B49500044C2
:102768006F6E277420746F756368206E6F73652CA5
:102778002065796573206F72206D6F757468207796
:1027880069746800796F75722068616E64733F20A0
:10279800312D59455320322D4E4F20332D534B495F
:1027A800500041766F696420636C6F736520636FB6
:1027B8006E7461637420776974682070656F706CDB
:1027C800652077686F2068617665002020202020CA
:1027D800202020202020202020434F4E47524154C3
:1027E800554C4154494F4E53210020202020202091
:1027F800202020202020594F55522053434F524526
:102808002049532000546F20506C61792041676142
:10281800696E2050726573733A312C20546F2045CD
:102828007869742050726573733A320001010102AD
:0228380001019C
:00000001FF
